:1000000012C021C020C01FC01EC01DC01CC01BC00C
:100010001AC03EC018C017C016C015C014C013C007
:1000200012C011C010C011241FBECFE5D4E0DEBF46
:10003000CDBF20E0A0E6B0E001C01D92A136B2071E
:10004000E1F702D03AC0DCCFB89A83B7826083BFB1
:1000500012BE81E089BF78948E9AB99A89988A985D
:1000600094E6819B05C0C198969A90936000F9CF61
:10007000829B05C0C19A969A90936000F2CF88B394
:100080008C7F88BB82B3807882BB10926000E9CFFE
:100090001F920F920FB60F9211248F939F9380910E
:1000A000600082BF98B381E0892788BB9F918F91C0
:0E00B0000F900FBE0F901F901895F894FFCF81
:00000001FF
